:020000040800F2
:1000000000500020990D00083D0D0008430D000828
:10001000490D00084F0D0008550D000800000000B4
:100020000000000000000000000000005B0D000860
:10003000670D000800000000730D00087F0D000828
:10004000E10D0008E10D0008E10D0008E10D0008D8
:10005000E10D0008E10D0008E10D0008E10D0008C8
:10006000E10D0008E10D0008E10D0008E10D0008B8
:10007000E10D0008E10D0008E10D0008E10D0008A8
:10008000E10D0008E10D0008E10D0008E10D000898
:10009000E10D0008E10D0008E10D0008E10D000888
:1000A000E10D0008E10D0008E10D0008E10D000878
:1000B000E10D0008E10D0008E10D0008E10D000868
:1000C000E10D0008E10D0008E10D0008E10D000858
:1000D000E10D0008E10D0008E10D0008E10D000848
:1000E000E10D0008E10D0008E10D0008000000002E
:1000F0000000000000000000000000000000000000
:0C01000000000000000000005FF808F1A3
:10010C0010B5054C237833B9044B13B10448AFF345
:10011C0000800123237010BD0C00002000000000A3
:10012C00641C000808B5034B1BB103490348AFF32B
:10013C00008008BD0000000010000020641C0008B6
:10014C0080B400AF00BFBD4680BC704780B400AF28
:10015C0000BFBD4680BC704780B400AF00BFBD4639
:10016C0080BC704780B400AF00BFBD4680BC7047F8
:10017C0080B582B000AF78607B68DB69002098475F
:10018C0000BF0837BD4680BD80B582B000AF786037
:10019C007B68DB690120984700BF0837BD4680BDEE
:1001AC0080B586B000AFF860B9601346FB71FB6890
:1001BC009B6898470023BB752BE00023FB75BB7D28
:1001CC00BA6813441B787B751DE0FB689B690020A3
:1001DC009847FB681B6A01209847FB681B697A7D6E
:1001EC0002F00102D2B210469847FB689B690120CD
:1001FC009847FB681B6A01209847FB7D0133FB7510
:10020C007B7D5B087B75FB7D072BDED9BB7D0133CA
:10021C00BB75BA7DFB799A42CFD300BF00BF1837AC
:10022C00BD4680BD80B586B000AFF860B96013469E
:10023C00FB71FB68DB689847FB681B6A05209847D5
:10024C000023BB7534E00023FB7500237B7520E095
:10025C00FB689B6900209847FB681B6A0120984744
:10026C00FB689B6901209847FB685B6998470346CC
:10027C001A46FB7D02FA03F35AB297F91530134371
:10028C005BB27B75FB681B6A01209847FB7D0133D1
:10029C00FB75FB7D072BDBD9BB7DBA6813447A7DDC
:1002AC001A70FB681B6A02209847BB7D0133BB7533
:1002BC00BA7DFB799A42C6D300BF00BF1837BD4642
:1002CC0080BD80B586B000AFF860B96011461A46A3
:1002DC000B46FB711346BB714023FB75F868FFF7A7
:1002EC0047FF07F1170301221946F868FFF758FF7B
:1002FC00F868FFF749FFFB7963F03F03DBB2FB754E
:10030C00F868FFF735FF07F1170301221946F86863
:10031C00FFF746FFBB791A46B968F868FFF740FF4C
:10032C00F868FFF731FF00BF1837BD4680BD80B5B8
:10033C0084B000AF786039604223FB737868FFF7B4
:10034C0017FF07F10F03012219467868FFF728FF02
:10035C00042239687868FFF765FF7868FFF714FFA7
:10036C0000BF1037BD4680BD80B584B000AF78604B
:10037C000B46FB707B68002283F824200023FB7360
:10038C0008E0FB7B7A681344002283F82520FB7B72
:10039C000133FB73FB7B0F2BF3D9FB78002B04D1C0
:1003AC007B68002283F8242003E07B68012283F819
:1003BC0024207B681B689847002318461037BD46DD
:1003CC0080BD80B584B000AF78600B46FB701346DF
:1003DC00BB708023FB7397F9033003F007035AB209
:1003EC00FB7B5BB213435BB2DBB2FB73BB78002BC2
:1003FC0001D0082200E00022FB7B5BB213435BB20E
:10040C00DBB2FB737868FFF7B3FE07F10F03012231
:10041C0019467868FFF7C4FE7868FFF7B5FE00232D
:10042C0018461037BD4680BD80B582B000AF7860ED
:10043C000B46FB701346BB707B6893F82430002B83
:10044C0006D1BA78F91C01237868FFF73AFF05E06A
:10045C00BA78F91C0123786800F005F800231846D7
:10046C000837BD4680BD80B586B000AFF860B96076
:10047C0011461A460B46FB711346BB710023FB75E4
:10048C000023BB7500237B7500233B75FB6893F839
:10049C002430002B06D1BB79FA79B968F868FFF7DC
:1004AC0010FF71E000233B7562E03B7DBA6813449A
:1004BC001B78BB753A7DFB791344072B06DC3A7D20
:1004CC00FB791344FB7500237B754BE03A7DFB797C
:1004DC001344082B04D03A7DFB791344092B08D123
:1004EC003A7DFB791344DBB2083BFB7501237B752A
:1004FC0001E010237B7535E0BB7D03F00103002B7D
:10050C0014D07B7DFA68134493F825305AB2FB7DE6
:10051C00012101FA03F35BB213435AB27B7DD1B2D2
:10052C00FA6813440A4683F8252015E07B7DFA68A7
:10053C00134493F825305AB2FB7D012101FA03F3E1
:10054C005BB2DB435BB213405AB27B7DD1B2FA682B
:10055C0013440A4683F825207B7D02337B75BB7DD3
:10056C005B08BB757B7D0F2BC6D93B7D01333B757F
:10057C003A7DBB799A4298D3FB6803F1250110238D
:10058C000022F868FFF79DFE002318461837BD4679
:10059C0080BD000080B584B000AF78600B46FB7066
:1005AC001346BB700023FB73FB7823F07F03BB73F4
:1005BC00FB7803F07F03FB70FB780F2B06D8FB78DE
:1005CC00454AD25CBB7B1343FB737AE0FB78413B1F
:1005DC00252B73D801A252F823F000BF8106000826
:1005EC008D06000899060008A5060008B10600084B
:1005FC00BD060008C9060008C9060008C90600089F
:10060C00C9060008C9060008C9060008C906000882
:10061C00C9060008C9060008C9060008C906000872
:10062C00C9060008C9060008C9060008C906000862
:10063C00C9060008C9060008C9060008C906000852
:10064C00C9060008C9060008C9060008C906000842
:10065C00C9060008C9060008C9060008810600087A
:10066C008D06000899060008A5060008B1060008CA
:10067C00BD060008184B9A7ABB7B1343FB7320E032
:10068C00154BDA7ABB7B1343FB731AE0124B1A7BC4
:10069C00BB7B1343FB7314E00F4B5A7BBB7B1343A5
:1006AC00FB730EE00C4B9A7BBB7B1343FB7308E094
:1006BC00094BDA7BBB7B1343FB7302E00023FB7318
:1006CC0000BFBA78FB7B19467868FFF7ADFE03468E
:1006DC0018461037BD4680BD7C1C000880B586B01E
:1006EC0000AF7860396000237B610123FB7407F154
:1006FC000C0319467868FFF71AFE0023BB7437E029
:10070C0003237B742AE07B695B007B6197F91130D2
:10071C0018333B4413F80C3C1A46FB7C1B0113406A
:10072C00002B03D07B6943F001037B617B695B0089
:10073C007B6197F9113018333B4413F80C2CFB7C7C
:10074C001340DBB2002B03D07B6943F001037B61C8
:10075C0097F91130DBB2013BDBB27B7497F91130A6
:10076C00002BD0DAFB7C5B00FB74BB7C0133BB74CD
:10077C00BB7C022BC4D93B687A691A6000231846EB
:10078C001837BD4680BD80B586B000AF7860396043
:10079C0007F1080300221A605A609A60DA603B681D
:1007AC00BB600123FB6000233B6102237B6107F1EB
:1007BC0008031946786800F079FC00BF1837BD466D
:1007CC0080BD80B586B000AF7860396007F1080352
:1007DC0000221A605A609A60DA603B68BB600023A2
:1007EC00FB6001233B6102237B6107F1080319467F
:1007FC00786800F05BFC00BF1837BD4680BD000078
:10080C0080B500AF4FF480410948FFF7BCFF402191
:10081C000848FFF7B8FF4FF400510748FFF7B3FF44
:10082C004FF400410448FFF7AEFF00BF80BD00BF8E
:10083C00000C0140000801400010014080B400AFE2
:10084C0000BFBD4680BC704780B500AF4FF400516F
:10085C000248FFF798FF00BF80BD00BF00100140A9
:10086C0080B500AF4FF400510248FFF7AAFF00BF5C
:10087C0080BD00BF0010014080B582B000AF0346C0
:10088C00FB71FB791A464FF40051034800F0A9FDA7
:10089C0000BF0837BD4680BD0010014080B582B056
:1008AC0000AF0123FB714FF40051054800F082FDAD
:1008BC000346FB71FB7918460837BD4680BD00BF67
:1008CC000010014080B582B000AF0346FB71FB798C
:1008DC001A464FF48041034800F083FD00BF0837EF
:1008EC00BD4680BD000C014080B582B000AF034610
:1008FC00FB71FB791A464021034800F072FD00BFE2
:10090C000837BD4680BD00BF0008014080B485B0EB
:10091C0000AF0346FB710023FB6002E0FB68013370
:10092C00FB60FB79642202FB03F31A46FB689342DB
:10093C00F4D300BF00BF1437BD4680BC7047000025
:10094C0080B483B000AF78607B680F4A1A607B6814
:10095C000E4A5A607B680E4A9A607B680D4ADA60D0
:10096C007B680D4A1A617B680C4A5A617B680C4A99
:10097C009A617B680B4ADA617B680B4A1A6200BF8A
:10098C000C37BD4680BC70470D08000849080008AC
:10099C00550800086D08000885080008A90800081B
:1009AC00D1080008F50800081909000880B592B0B4
:1009BC0000AF00F011FA00F0B9F800F0FDF807F103
:1009CC0008031846FFF7BCFF07F10803002118467F
:1009DC00FFF7CAFC07F10803002201211846FFF7B4
:1009EC00F0FC642000F05AFA07F1080301220721F9
:1009FC001846FFF7E6FC07F108030222002118460F
:100A0C00FFF7C8FD642000F049FA07F1080304223F
:100A1C0000211846FFF7BEFD002387F8473000235E
:100A2C007B6000233B6407F1080300220021184679
:100A3C00FFF7B0FD642000F031FA3A1D07F108030E
:100A4C0011461846FFF74AFE03463B643B6C002BED
:100A5C0065D17B68202B47D8002B5DD0013B1F2B29
:100A6C005AD801A252F823F0FB0A0008010B000827
:100A7C00250B0008130B0008250B0008250B00089C
:100A8C00250B0008250B0008250B0008250B00087A
:100A9C00250B0008250B0008250B0008250B00086A
:100AAC00250B0008190B0008250B0008250B000866
:100ABC00250B0008250B0008250B0008250B00084A
:100ACC00250B0008250B0008250B0008250B00083A
:100ADC00250B0008250B0008250B0008250B00082A
:100AEC00250B00081F0B0008402B17D014E0FFF754
:100AFC0039FB14E0642000F0D1F94FF400410A48AE
:100B0C0000F087FC0BE0FFF727FB08E0FFF718FB72
:100B1C0005E0FFF71BFB02E000BF00E000BF642014
:100B2C0000F0BCF986E700BF0010014080B590B022
:100B3C0000AF07F1180328220021184601F060F8D5
:100B4C003B1D00221A605A609A60DA601A61012318
:100B5C00BB614FF48033FB6100233B620123BB621A
:100B6C0002237B634FF48033BB634FF4C013FB63EE
:100B7C0007F11803184600F065FC0346002B01D062
:100B8C0000F09EF80F237B600223BB600023FB6008
:100B9C004FF480633B6100237B613B1D02211846AF
:100BAC0000F0D2FE0346002B01D000F089F800BF04
:100BBC004037BD4680BD000080B588B000AF07F15E
:100BCC00100300221A605A609A60DA60384B9B69F5
:100BDC00374A43F010039361354B9B6903F01003C4
:100BEC00FB60FB68324B9B69314A43F020039361F5
:100BFC002F4B9B6903F02003BB60BB682C4B9B699C
:100C0C002B4A43F004039361294B9B6903F00403C3
:100C1C007B607B68264B9B69254A43F008039361F4
:100C2C00234B9B6903F008033B603B6800224FF4A5
:100C3C000051204800F0D5FB002240211E4800F056
:100C4C00D0FB00224FF480411C4800F0CAFB4FF44B
:100C5C0000533B6101237B610023BB610223FB61D9
:100C6C0007F110031946134800F020FA40233B61AA
:100C7C0001237B610023BB610223FB6107F110039D
:100C8C0019460D4800F012FA4FF480433B610123E2
:100C9C007B610023BB610223FB6107F11003194642
:100CAC00064800F003FA00BF2037BD4680BD00BFE8
:100CBC00001002400010014000080140000C0140EF
:100CCC0080B400AF72B600BFFEE7000080B485B000
:100CDC0000AF154B9B69144A43F001039361124B0F
:100CEC009B6903F00103BB60BB680F4BDB690E4AC9
:100CFC0043F08053D3610C4BDB6903F080537B6072
:100D0C007B680A4B5B68FB60FB6823F0E063FB606D
:100D1C00FB6843F00073FB60044AFB68536000BF40
:100D2C001437BD4680BC70470010024000000140E3
:100D3C0080B400AFFEE780B400AFFEE780B400AF34
:100D4C00FEE780B400AFFEE780B400AFFEE780B4EE
:100D5C0000AF00BFBD4680BC704780B400AF00BF81
:100D6C00BD4680BC704780B400AF00BFBD4680BCA0
:100D7C00704780B500AF00F075F800BF80BD80B43F
:100D8C0000AF00BFBD4680BC70470000FFF7F7FF07
:100D9C000B480C490C4A002302E0D458C4500433CD
:100DAC00C4188C42F9D3094A094C002301E01360A2
:100DBC000432A242FBD300F02BFFFFF7F7FD704784
:100DCC00000000200C000020B41C00080C000020C7
:100DDC002C000020FEE7000080B500AF084B1B681C
:100DEC00074A43F010031360032000F02BF90F2087
:100DFC0000F008F8FFF76AFF0023184680BD00BF1B
:100E0C000020024080B582B000AF7860124B1A68A7
:100E1C00124B1B7819464FF47A73B3FBF1F3B2FB08
:100E2C00F3F3184600F035F90346002B01D00123EB
:100E3C000EE07B680F2B0AD8002279684FF0FF3048
:100E4C0000F00BF9064A7B681360002300E00123D5
:100E5C0018460837BD4680BD000000200800002061
:100E6C000400002080B400AF054B1B781A46054BDC
:100E7C001B681344034A136000BFBD4680BC704717
:100E8C00080000202800002080B400AF024B1B6833
:100E9C001846BD4680BC70472800002080B584B041
:100EAC0000AF7860FFF7F0FFB8607B68FB60FB6811
:100EBC00B3F1FF3F05D00A4B1B781A46FB6813446D
:100ECC00FB6000BFFFF7E0FF0246BB68D31AFA686D
:100EDC009A42F7D800BF00BF1037BD4680BD00BF97
:100EEC000800002080B485B000AF78607B6803F008
:100EFC000703FB600C4BDB68BB60BA684FF6FF0363
:100F0C001340BB60FB681A02BB68134343F0BF631A
:100F1C0043F40033BB60044ABB68D36000BF143792
:100F2C00BD4680BC704700BF00ED00E080B400AF50
:100F3C00044BDB681B0A03F007031846BD4680BC54
:100F4C00704700BF00ED00E080B483B000AF0346F3
:100F5C003960FB7197F90730002B0ADB3B68DAB27A
:100F6C000C4997F907301201D2B20B4483F80023D5
:100F7C000AE03B68DAB20849FB7903F00F03043B43
:100F8C001201D2B20B441A7600BF0C37BD4680BC9E
:100F9C00704700BF00E100E000ED00E080B489B0D4
:100FAC0000AFF860B9607A60FB6803F00703FB617F
:100FBC00FB69C3F10703042B28BF0423BB61FB6946
:100FCC000433062B02D9FB69033B00E000237B6151
:100FDC004FF0FF32BB6902FA03F3DA43BB681A40E5
:100FEC007B699A404FF0FF317B6901FA03F3D943D7
:100FFC007B680B40134318462437BD4680BC7047B2
:10100C0080B582B000AF78607B68013BB3F1807F24
:10101C0001D301230FE00A4A7B68013B53600F2187
:10102C004FF0FF30FFF790FF054B00229A60044B06
:10103C0007221A60002318460837BD4680BD00BF42
:10104C0010E000E080B582B000AF78607868FFF700
:10105C0049FF00BF0837BD4680BD80B586B000AFE4
:10106C000346B9607A60FB7300237B61FFF75EFF78
:10107C0078617A68B9687869FFF790FF024697F94A
:10108C000F3011461846FFF75FFF00BF1837BD46FB
:10109C0080BD80B582B000AF78607868FFF7B0FF94
:1010AC00034618460837BD4680BD000080B48BB09F
:1010BC0000AF7860396000237B6200233B6269E1FA
:1010CC0001227B6A02FA03F3FB613B681B68FA6935
:1010DC001340BB61BA69FB699A4240F058813B6886
:1010EC005B689A4A93425ED0984A934275D8984A64
:1010FC00934258D0964A93426FD8964A934252D014
:10110C00944A934269D8944A93424CD0924A93425F
:10111C0063D8924A934246D0904A93425DD8122BA0
:10112C002AD8122B59D801A252F823F0B311000877
:10113C008D1100089F110008E1110008E71100084B
:10114C00E7110008E7110008E7110008E711000893
:10115C00E7110008E7110008E7110008E711000883
:10116C00E7110008E7110008E7110008E711000873
:10117C0095110008A9110008794A934213D02CE06C
:10118C003B68DB683B6229E03B68DB6804333B620D
:10119C0024E03B68DB6808333B621FE03B68DB689C
:1011AC000C333B621AE03B689B68002B02D1042392
:1011BC003B6213E03B689B68012B05D108233B6223
:1011CC007B68FA691A6109E008233B627B68FA695B
:1011DC005A6103E000233B6200E000BFBB69FF2BB8
:1011EC0001D87B6801E07B6804337B61BB69FF2B12
:1011FC0002D87B6A9B0002E07B6A083B9B003B6148
:10120C007B691A680F213B6901FA03F3DB431A402F
:10121C00396A3B6901FA03F31A437B691A603B682C
:10122C005B6803F08053002B00F0B1804D4B9B6941
:10123C004C4A43F0010393614A4B9B6903F0010351
:10124C00BB60BB68484A7B6A9B08023352F8233068
:10125C00FB607B6A03F003039B000F2202FA03F38B
:10126C00DB43FA681340FB607B68404A934213D01F
:10127C007B683F4A93420DD07B683E4A934207D02D
:10128C007B683D4A934201D1032306E0042304E02A
:10129C00022302E0012300E000237A6A02F0030239
:1012AC0092009340FA681343FB602F497B6A9B08BA
:1012BC000233FA6841F823203B685B6803F480131F
:1012CC00002B06D02D4B9A682C49BB6913438B60BD
:1012DC0006E02A4B9A68BB69DB43284913408B60B4
:1012EC003B685B6803F40013002B06D0234BDA68D1
:1012FC002249BB691343CB6006E0204BDA68BB691B
:10130C00DB431E491340CB603B685B6803F400333E
:10131C00002B06D0194B5A681849BB6913434B6014
:10132C0006E0164B5A68BB69DB43144913404B600B
:10133C003B685B6803F48033002B21D00F4B1A6899
:10134C000E49BB6913430B6021E000BF0000321053
:10135C0000003110000022100000211000001210BB
:10136C000000111000100240000001400008014074
:10137C00000C014000100140001401400004014029
:10138C000B4B1A68BB69DB43094913400B607B6A42
:10139C0001337B623B681A687B6A22FA03F3002BE9
:1013AC007FF48EAE00BF00BF2C37BD4680BC7047AB
:1013BC000004014080B485B000AF78600B467B80A0
:1013CC007B689A687B881340002B02D00123FB7347
:1013DC0001E00023FB73FB7B18461437BD4680BC31
:1013EC00704780B483B000AF78600B467B801346A7
:1013FC007B707B78002B03D07A887B681A6103E0C2
:10140C007B881A047B681A6100BF0C37BD4680BC10
:10141C00704780B485B000AF78600B467B807B68EA
:10142C00DB68FB607A88FB6813401A04FB68D943BD
:10143C007B880B401A437B681A6100BF1437BD468A
:10144C0080BC704780B586B000AF78607B68002B9D
:10145C0001D1012372E27B681B6803F00103002BAE
:10146C0000F08780924B5B6803F00C03042B0CD0CC
:10147C008F4B5B6803F00C03082B12D18C4B5B6811
:10148C0003F48033B3F5803F0BD1894B1B6803F415
:10149C000033002B6CD07B685B68002B68D1012378
:1014AC004CE27B685B68B3F5803F06D1804B1B68D0
:1014BC007F4A43F4803313602EE07B685B68002B1B
:1014CC000CD17B4B1B687A4A23F480331360784B26
:1014DC001B68774A23F4802313601DE07B685B68EC
:1014EC00B3F5A02F0CD1724B1B68714A43F48023C7
:1014FC0013606F4B1B686E4A43F4803313600BE030
:10150C006B4B1B686A4A23F480331360684B1B686F
:10151C00674A23F4802313607B685B68002B13D02D
:10152C00FFF7B2FC386108E0FFF7AEFC02463B69FE
:10153C00D31A642B01D9032300E25D4B1B6803F41F
:10154C000033002BF0D014E0FFF79EFC386108E06C
:10155C00FFF79AFC02463B69D31A642B01D903238B
:10156C00ECE1534B1B6803F40033002BF0D100E08B
:10157C0000BF7B681B6803F00203002B63D04C4B4D
:10158C005B6803F00C03002B0BD0494B5B6803F03A
:10159C000C03082B1CD1464B5B6803F48033002BE7
:1015AC0016D1434B1B6803F00203002B05D07B685C
:1015BC001B69012B01D00123C0E13D4B1B6823F0BB
:1015CC00F8027B685B69DB00394913430B603AE036
:1015DC007B681B69002B20D0364B01221A60FFF769
:1015EC0053FC386108E0FFF74FFC02463B69D31A05
:1015FC00022B01D90323A1E12D4B1B6803F002033D
:10160C00002BF0D02A4B1B6823F0F8027B685B6937
:10161C00DB00274913430B6015E0264B00221A60B0
:10162C00FFF732FC386108E0FFF72EFC02463B69FD
:10163C00D31A022B01D9032380E11D4B1B6803F045
:10164C000203002BF0D17B681B6803F00803002B0E
:10165C003AD07B689B69002B19D0174B01221A607A
:10166C00FFF712FC386108E0FFF70EFC02463B69FD
:10167C00D31A022B01D9032360E10D4B5B6A03F0F3
:10168C000203002BF0D0012000F09CFA1CE00A4B66
:10169C0000221A60FFF7F8FB38610FE0FFF7F4FB4C
:1016AC0002463B69D31A022B08D9032346E100BF3B
:1016BC00001002400000424280044242924B5B6A9E
:1016CC0003F00203002BE9D17B681B6803F00403D1
:1016DC00002B00F0A6800023FB758B4BDB6903F01D
:1016EC008053002B0DD1884BDB69874A43F0805324
:1016FC00D361854BDB6903F08053BB60BB6801236E
:10170C00FB75824B1B6803F48073002B18D17F4B45
:10171C001B687E4A43F480731360FFF7B5FB386196
:10172C0008E0FFF7B1FB02463B69D31A642B01D9E1
:10173C00032303E1754B1B6803F48073002BF0D07B
:10174C007B68DB68012B06D16F4B1B6A6E4A43F03A
:10175C00010313622DE07B68DB68002B0CD16A4B14
:10176C001B6A694A23F001031362674B1B6A664AC2
:10177C0023F0040313621CE07B68DB68052B0CD19F
:10178C00614B1B6A604A43F0040313625E4B1B6A95
:10179C005D4A43F0010313620BE05B4B1B6A5A4A30
:1017AC0023F001031362584B1B6A574A23F00403BE
:1017BC0013627B68DB68002B15D0FFF765FB386183
:1017CC000AE0FFF761FB02463B69D31A41F288320B
:1017DC00934201D90323B1E04B4B1B6A03F0020384
:1017EC00002BEED014E0FFF74FFB38610AE0FFF757
:1017FC004BFB02463B69D31A41F28832934201D922
:10180C0003239BE0404B1B6A03F00203002BEED139
:10181C00FB7D012B05D13C4BDB693B4A23F080530C
:10182C00D3617B68DB69002B00F08780364B5B68EB
:10183C0003F00C03082B61D07B68DB69022B46D1CB
:10184C00334B00221A60FFF71FFB386108E0FFF7EB
:10185C001BFB02463B69D31A022B01D903236DE013
:10186C00294B1B6803F00073002BF0D17B681B6ABB
:10187C00B3F5803F08D1244B5B6823F400327B68BE
:10188C009B68214913434B601F4B5B6823F4741214
:10189C007B68196A7B685B6A0B431B4913434B607B
:1018AC001B4B01221A60FFF7EFFA386108E0FFF7D3
:1018BC00EBFA02463B69D31A022B01D903233DE014
:1018CC00114B1B6803F00073002BF0D035E0104B6C
:1018DC0000221A60FFF7D8FA386108E0FFF7D4FA53
:1018EC0002463B69D31A022B01D9032326E0064B8F
:1018FC001B6803F00073002BF0D11EE07B68DB69E2
:10190C00012B07D1012319E00010024000700040A8
:10191C00600042420B4B5B68FB60FB6803F4803257
:10192C007B681B6A9A4206D1FB6803F470127B68D1
:10193C005B6A9A4201D0012300E000231846183755
:10194C00BD4680BD0010024080B584B000AF786009
:10195C0039607B68002B01D10123D0E06A4B1B68F6
:10196C0003F007033A689A4210D9674B1B6823F0BF
:10197C00070265493B6813430B60634B1B6803F01C
:10198C0007033A689A4201D00123B8E07B681B68D0
:10199C0003F00203002B20D07B681B6803F00403C8
:1019AC00002B05D0594B5B68584A43F4E0635360F5
:1019BC007B681B6803F00803002B05D0534B5B6856
:1019CC00524A43F460535360504B5B6823F0F0026F
:1019DC007B689B684D4913434B607B681B6803F025
:1019EC000103002B40D07B685B68012B07D1474B70
:1019FC001B6803F40033002B15D101237FE07B68B7
:101A0C005B68022B07D1414B1B6803F00073002B62
:101A1C0009D1012373E03D4B1B6803F00203002B3B
:101A2C0001D101236BE0394B5B6823F003027B6827
:101A3C005B68364913434B60FFF726FAF8600AE0FF
:101A4C00FFF722FA0246FB68D31A41F2883293421E
:101A5C0001D9032353E02D4B5B6803F00C027B6828
:101A6C005B689B009A42EBD1274B1B6803F0070382
:101A7C003A689A4210D2244B1B6823F00702224981
:101A8C003B6813430B60204B1B6803F007033A6859
:101A9C009A4201D0012332E07B681B6803F00403F7
:101AAC00002B08D0194B5B6823F4E0627B68DB6881
:101ABC00164913434B607B681B6803F00803002B2B
:101ACC0009D0124B5B6823F460527B681B69DB0006
:101ADC000E4913434B6000F021F802460B4B5B6838
:101AEC001B0903F00F030A49CB5C22FA03F3094AE2
:101AFC001360094B1B681846FFF784F9002318463E
:101B0C001037BD4680BD00BF0020024000100240CF
:101B1C00881C0008000000200400002080B487B05E
:101B2C0000AF0023FB600023BB6000237B6100231C
:101B3C007B6000233B611E4B5B68FB60FB6803F022
:101B4C000C03042B02D0082B03D027E0194B3B616C
:101B5C0027E0FB689B0C03F00F03174AD35C7B60F8
:101B6C00FB6803F48033002B10D0114B5B685B0CCB
:101B7C0003F00103114AD35CBB607B680D4A03FB85
:101B8C0002F2BB68B2FBF3F37B6104E07B680C4AA6
:101B9C0002FB03F37B617B693B6102E0054B3B611C
:101BAC0000BF3B6918461C37BD4680BC704700BF60
:101BBC000010024000127A00981C0008A81C0008B3
:101BCC0000093D0080B485B000AF78600A4B1B68FB
:101BDC000A4AA2FB03235B0A7A6802FB03F3FB604D
:101BEC0000BFFB685A1EFA60002BF9D100BF00BF82
:101BFC001437BD4680BC704700000020D34D6210E6
:101C0C0003460244934200D1704703F8011BF9E7E5
:101C1C0070B500260C4D0D4C641BA410A64209D1C6
:101C2C0000F01AF800260A4D0A4C641BA410A642B8
:101C3C0005D170BD55F8043B98470136EEE755F8D1
:101C4C00043B98470136F2E7AC1C0008AC1C0008BA
:101C5C00AC1C0008B01C0008F8B500BFF8BC08BCF0
:101C6C009E467047F8B500BFF8BC08BC9E4670474E
:101C7C000080C0E0F0F8FCFEFF0000000000000057
:101C8C000000000001020304060708090203040512
:101C9C00060708090A0B0C0D0E0F101001020000AC
:041CAC0031010008FA
:041CB0000D0100081A
:0C1CB4000024F4001000000001000000FB
:0400000508000D9949
:00000001FF
